{
  "_format": "hh-sol-artifact-1",
  "contractName": "AyurTrace",
  "sourceName": "contracts/AyurTrace.sol",
  "abi": [
    {
      "anonymous": false,
      "inputs": [
        {
          "indexed": false,
          "internalType": "string",
          "name": "eventType",
          "type": "string"
        },
        {
          "indexed": false,
          "internalType": "string",
          "name": "batchId",
          "type": "string"
        },
        {
          "indexed": false,
          "internalType": "string",
          "name": "dataHash",
          "type": "string"
        },
        {
          "indexed": false,
          "internalType": "uint256",
          "name": "timestamp",
          "type": "uint256"
        },
        {
          "indexed": false,
          "internalType": "address",
          "name": "actor",
          "type": "address"
        }
      ],
      "name": "SupplyChainEvent",
      "type": "event"
    },
    {
      "inputs": [
        {
          "internalType": "uint256",
          "name": "",
          "type": "uint256"
        }
      ],
      "name": "events",
      "outputs": [
        {
          "internalType": "string",
          "name": "eventType",
          "type": "string"
        },
        {
          "internalType": "string",
          "name": "batchId",
          "type": "string"
        },
        {
          "internalType": "string",
          "name": "dataHash",
          "type": "string"
        },
        {
          "internalType": "uint256",
          "name": "timestamp",
          "type": "uint256"
        },
        {
          "internalType": "address",
          "name": "actor",
          "type": "address"
        }
      ],
      "stateMutability": "view",
      "type": "function"
    },
    {
      "inputs": [
        {
          "internalType": "uint256",
          "name": "index",
          "type": "uint256"
        }
      ],
      "name": "getEvent",
      "outputs": [
        {
          "internalType": "string",
          "name": "",
          "type": "string"
        },
        {
          "internalType": "string",
          "name": "",
          "type": "string"
        },
        {
          "internalType": "string",
          "name": "",
          "type": "string"
        },
        {
          "internalType": "uint256",
          "name": "",
          "type": "uint256"
        },
        {
          "internalType": "address",
          "name": "",
          "type": "address"
        }
      ],
      "stateMutability": "view",
      "type": "function"
    },
    {
      "inputs": [],
      "name": "getEventsCount",
      "outputs": [
        {
          "internalType": "uint256",
          "name": "",
          "type": "uint256"
        }
      ],
      "stateMutability": "view",
      "type": "function"
    },
    {
      "inputs": [
        {
          "internalType": "string",
          "name": "eventType",
          "type": "string"
        },
        {
          "internalType": "string",
          "name": "batchId",
          "type": "string"
        },
        {
          "internalType": "string",
          "name": "dataHash",
          "type": "string"
        }
      ],
      "name": "logEvent",
      "outputs": [],
      "stateMutability": "nonpayable",
      "type": "function"
    }
  ],
  "bytecode": "0x608060405234801561001057600080fd5b50610db2806100206000396000f3fe608060405234801561001057600080fd5b506004361061004c5760003560e01c80630b7914301461005157806330366d5f146100855780636d1884e0146100a357806391ef0690146100d7575b600080fd5b61006b60048036038101906100669190610703565b6100f3565b60405161007c959493929190610810565b60405180910390f35b61008d6102f1565b60405161009a9190610878565b60405180910390f35b6100bd60048036038101906100b89190610703565b6102fd565b6040516100ce959493929190610810565b60405180910390f35b6100f160048036038101906100ec91906109c8565b610578565b005b6000818154811061010357600080fd5b906000526020600020906005020160009150905080600001805461012690610a9e565b80601f016020809104026020016040519081016040528092919081815260200182805461015290610a9e565b801561019f5780601f106101745761010080835404028352916020019161019f565b820191906000526020600020905b81548152906001019060200180831161018257829003601f168201915b5050505050908060010180546101b490610a9e565b80601f01602080910402602001604051908101604052809291908181526020018280546101e090610a9e565b801561022d5780601f106102025761010080835404028352916020019161022d565b820191906000526020600020905b81548152906001019060200180831161021057829003601f168201915b50505050509080600201805461024290610a9e565b80601f016020809104026020016040519081016040528092919081815260200182805461026e90610a9e565b80156102bb5780601f10610290576101008083540402835291602001916102bb565b820191906000526020600020905b81548152906001019060200180831161029e57829003601f168201915b5050505050908060030154908060040160009054906101000a900473ffffffffffffffffffffffffffffffffffffffff16905085565b60008080549050905090565b6060806060600080600080878154811061031a57610319610acf565b5b90600052602060002090600502016040518060a001604052908160008201805461034390610a9e565b80601f016020809104026020016040519081016040528092919081815260200182805461036f90610a9e565b80156103bc5780601f10610391576101008083540402835291602001916103bc565b820191906000526020600020905b81548152906001019060200180831161039f57829003601f168201915b505050505081526020016001820180546103d590610a9e565b80601f016020809104026020016040519081016040528092919081815260200182805461040190610a9e565b801561044e5780601f106104235761010080835404028352916020019161044e565b820191906000526020600020905b81548152906001019060200180831161043157829003601f168201915b5050505050815260200160028201805461046790610a9e565b80601f016020809104026020016040519081016040528092919081815260200182805461049390610a9e565b80156104e05780601f106104b5576101008083540402835291602001916104e0565b820191906000526020600020905b8154815290600101906020018083116104c357829003601f168201915b50505050508152602001600382015481526020016004820160009054906101000a900473ffffffffffffffffffffffffffffffffffffffff1673ffffffffffffffffffffffffffffffffffffffff1673ffffffffffffffffffffffffffffffffffffffff1681525050905080600001518160200151826040015183606001518460800151955095509550955095505091939590929450565b60006040518060a001604052808581526020018481526020018381526020014281526020013373ffffffffffffffffffffffffffffffffffffffff16815250908060018154018082558091505060019003906000526020600020906005020160009091909190915060008201518160000190816105f59190610caa565b50602082015181600101908161060b9190610caa565b5060408201518160020190816106219190610caa565b506060820151816003015560808201518160040160006101000a81548173ffffffffffffffffffffffffffffffffffffffff021916908373ffffffffffffffffffffffffffffffffffffffff16021790555050507f2cefbd78da77a965d68db1f30cb7eaa9a493fb8c55040615e63bed20c91c77c583838342336040516106ac959493929190610810565b60405180910390a1505050565b6000604051905090565b600080fd5b600080fd5b6000819050919050565b6106e0816106cd565b81146106eb57600080fd5b50565b6000813590506106fd816106d7565b92915050565b600060208284031215610719576107186106c3565b5b6000610727848285016106ee565b91505092915050565b600081519050919050565b600082825260208201905092915050565b60005b8381101561076a57808201518184015260208101905061074f565b60008484015250505050565b6000601f19601f8301169050919050565b600061079282610730565b61079c818561073b565b93506107ac81856020860161074c565b6107b581610776565b840191505092915050565b6107c9816106cd565b82525050565b600073ffffffffffffffffffffffffffffffffffffffff82169050919050565b60006107fa826107cf565b9050919050565b61080a816107ef565b82525050565b600060a082019050818103600083015261082a8188610787565b9050818103602083015261083e8187610787565b905081810360408301526108528186610787565b905061086160608301856107c0565b61086e6080830184610801565b9695505050505050565b600060208201905061088d60008301846107c0565b92915050565b600080fd5b600080fd5b7f4e487b7100000000000000000000000000000000000000000000000000000000600052604160045260246000fd5b6108d582610776565b810181811067ffffffffffffffff821117156108f4576108f361089d565b5b80604052505050565b60006109076106b9565b905061091382826108cc565b919050565b600067ffffffffffffffff8211156109335761093261089d565b5b61093c82610776565b9050602081019050919050565b82818337600083830152505050565b600061096b61096684610918565b6108fd565b90508281526020810184848401111561098757610986610898565b5b610992848285610949565b509392505050565b600082601f8301126109af576109ae610893565b5b81356109bf848260208601610958565b91505092915050565b6000806000606084860312156109e1576109e06106c3565b5b600084013567ffffffffffffffff8111156109ff576109fe6106c8565b5b610a0b8682870161099a565b935050602084013567ffffffffffffffff811115610a2c57610a2b6106c8565b5b610a388682870161099a565b925050604084013567ffffffffffffffff811115610a5957610a586106c8565b5b610a658682870161099a565b9150509250925092565b7f4e487b7100000000000000000000000000000000000000000000000000000000600052602260045260246000fd5b60006002820490506001821680610ab657607f821691505b602082108103610ac957610ac8610a6f565b5b50919050565b7f4e487b7100000000000000000000000000000000000000000000000000000000600052603260045260246000fd5b60008190508160005260206000209050919050565b60006020601f8301049050919050565b600082821b905092915050565b600060088302610b607fffffffffffffffffffffffffffffffffffffffffffffffffffffffffffffffff82610b23565b610b6a8683610b23565b95508019841693508086168417925050509392505050565b6000819050919050565b6000610ba7610ba2610b9d846106cd565b610b82565b6106cd565b9050919050565b6000819050919050565b610bc183610b8c565b610bd5610bcd82610bae565b848454610b30565b825550505050565b600090565b610bea610bdd565b610bf5818484610bb8565b505050565b5b81811015610c1957610c0e600082610be2565b600181019050610bfb565b5050565b601f821115610c5e57610c2f81610afe565b610c3884610b13565b81016020851015610c47578190505b610c5b610c5385610b13565b830182610bfa565b50505b505050565b600082821c905092915050565b6000610c8160001984600802610c63565b1980831691505092915050565b6000610c9a8383610c70565b9150826002028217905092915050565b610cb382610730565b67ffffffffffffffff811115610ccc57610ccb61089d565b5b610cd68254610a9e565b610ce1828285610c1d565b600060209050601f831160018114610d145760008415610d02578287015190505b610d0c8582610c8e565b865550610d74565b601f198416610d2286610afe565b60005b82811015610d4a57848901518255600182019150602085019450602081019050610d25565b86831015610d675784890151610d63601f891682610c70565b8355505b6001600288020188555050505b50505050505056fea26469706673582212203ad3a19fac8e97aa305a3b8906a4d247cd918e69d6f5d350ebe098fd1c3cb48f64736f6c63430008180033",
  "linkReferences": {},
  "deployedLinkReferences": {}
}